{
  "_format": "hh3-artifact-1",
  "contractName": "SmetLoot",
  "sourceName": "contracts/SmetERC1155.sol",
  "abi": [
    {
      "inputs": [],
      "stateMutability": "nonpayable",
      "type": "constructor"
    },
    {
      "inputs": [
        {
          "internalType": "address",
          "name": "sender",
          "type": "address"
        },
        {
          "internalType": "uint256",
          "name": "balance",
          "type": "uint256"
        },
        {
          "internalType": "uint256",
          "name": "needed",
          "type": "uint256"
        },
        {
          "internalType": "uint256",
          "name": "tokenId",
          "type": "uint256"
        }
      ],
      "name": "ERC1155InsufficientBalance",
      "type": "error"
    },
    {
      "inputs": [
        {
          "internalType": "address",
          "name": "approver",
          "type": "address"
        }
      ],
      "name": "ERC1155InvalidApprover",
      "type": "error"
    },
    {
      "inputs": [
        {
          "internalType": "uint256",
          "name": "idsLength",
          "type": "uint256"
        },
        {
          "internalType": "uint256",
          "name": "valuesLength",
          "type": "uint256"
        }
      ],
      "name": "ERC1155InvalidArrayLength",
      "type": "error"
    },
    {
      "inputs": [
        {
          "internalType": "address",
          "name": "operator",
          "type": "address"
        }
      ],
      "name": "ERC1155InvalidOperator",
      "type": "error"
    },
    {
      "inputs": [
        {
          "internalType": "address",
          "name": "receiver",
          "type": "address"
        }
      ],
      "name": "ERC1155InvalidReceiver",
      "type": "error"
    },
    {
      "inputs": [
        {
          "internalType": "address",
          "name": "sender",
          "type": "address"
        }
      ],
      "name": "ERC1155InvalidSender",
      "type": "error"
    },
    {
      "inputs": [
        {
          "internalType": "address",
          "name": "operator",
          "type": "address"
        },
        {
          "internalType": "address",
          "name": "owner",
          "type": "address"
        }
      ],
      "name": "ERC1155MissingApprovalForAll",
      "type": "error"
    },
    {
      "anonymous": false,
      "inputs": [
        {
          "indexed": true,
          "internalType": "address",
          "name": "account",
          "type": "address"
        },
        {
          "indexed": true,
          "internalType": "address",
          "name": "operator",
          "type": "address"
        },
        {
          "indexed": false,
          "internalType": "bool",
          "name": "approved",
          "type": "bool"
        }
      ],
      "name": "ApprovalForAll",
      "type": "event"
    },
    {
      "anonymous": false,
      "inputs": [
        {
          "indexed": true,
          "internalType": "address",
          "name": "operator",
          "type": "address"
        },
        {
          "indexed": true,
          "internalType": "address",
          "name": "from",
          "type": "address"
        },
        {
          "indexed": true,
          "internalType": "address",
          "name": "to",
          "type": "address"
        },
        {
          "indexed": false,
          "internalType": "uint256[]",
          "name": "ids",
          "type": "uint256[]"
        },
        {
          "indexed": false,
          "internalType": "uint256[]",
          "name": "values",
          "type": "uint256[]"
        }
      ],
      "name": "TransferBatch",
      "type": "event"
    },
    {
      "anonymous": false,
      "inputs": [
        {
          "indexed": true,
          "internalType": "address",
          "name": "operator",
          "type": "address"
        },
        {
          "indexed": true,
          "internalType": "address",
          "name": "from",
          "type": "address"
        },
        {
          "indexed": true,
          "internalType": "address",
          "name": "to",
          "type": "address"
        },
        {
          "indexed": false,
          "internalType": "uint256",
          "name": "id",
          "type": "uint256"
        },
        {
          "indexed": false,
          "internalType": "uint256",
          "name": "value",
          "type": "uint256"
        }
      ],
      "name": "TransferSingle",
      "type": "event"
    },
    {
      "anonymous": false,
      "inputs": [
        {
          "indexed": false,
          "internalType": "string",
          "name": "value",
          "type": "string"
        },
        {
          "indexed": true,
          "internalType": "uint256",
          "name": "id",
          "type": "uint256"
        }
      ],
      "name": "URI",
      "type": "event"
    },
    {
      "inputs": [
        {
          "internalType": "address",
          "name": "account",
          "type": "address"
        },
        {
          "internalType": "uint256",
          "name": "id",
          "type": "uint256"
        }
      ],
      "name": "balanceOf",
      "outputs": [
        {
          "internalType": "uint256",
          "name": "",
          "type": "uint256"
        }
      ],
      "stateMutability": "view",
      "type": "function"
    },
    {
      "inputs": [
        {
          "internalType": "address[]",
          "name": "accounts",
          "type": "address[]"
        },
        {
          "internalType": "uint256[]",
          "name": "ids",
          "type": "uint256[]"
        }
      ],
      "name": "balanceOfBatch",
      "outputs": [
        {
          "internalType": "uint256[]",
          "name": "",
          "type": "uint256[]"
        }
      ],
      "stateMutability": "view",
      "type": "function"
    },
    {
      "inputs": [
        {
          "internalType": "address",
          "name": "account",
          "type": "address"
        },
        {
          "internalType": "address",
          "name": "operator",
          "type": "address"
        }
      ],
      "name": "isApprovedForAll",
      "outputs": [
        {
          "internalType": "bool",
          "name": "",
          "type": "bool"
        }
      ],
      "stateMutability": "view",
      "type": "function"
    },
    {
      "inputs": [
        {
          "internalType": "address",
          "name": "to",
          "type": "address"
        },
        {
          "internalType": "uint256",
          "name": "id",
          "type": "uint256"
        },
        {
          "internalType": "uint256",
          "name": "amount",
          "type": "uint256"
        }
      ],
      "name": "mint",
      "outputs": [],
      "stateMutability": "nonpayable",
      "type": "function"
    },
    {
      "inputs": [
        {
          "internalType": "address",
          "name": "from",
          "type": "address"
        },
        {
          "internalType": "address",
          "name": "to",
          "type": "address"
        },
        {
          "internalType": "uint256[]",
          "name": "ids",
          "type": "uint256[]"
        },
        {
          "internalType": "uint256[]",
          "name": "values",
          "type": "uint256[]"
        },
        {
          "internalType": "bytes",
          "name": "data",
          "type": "bytes"
        }
      ],
      "name": "safeBatchTransferFrom",
      "outputs": [],
      "stateMutability": "nonpayable",
      "type": "function"
    },
    {
      "inputs": [
        {
          "internalType": "address",
          "name": "from",
          "type": "address"
        },
        {
          "internalType": "address",
          "name": "to",
          "type": "address"
        },
        {
          "internalType": "uint256",
          "name": "id",
          "type": "uint256"
        },
        {
          "internalType": "uint256",
          "name": "value",
          "type": "uint256"
        },
        {
          "internalType": "bytes",
          "name": "data",
          "type": "bytes"
        }
      ],
      "name": "safeTransferFrom",
      "outputs": [],
      "stateMutability": "nonpayable",
      "type": "function"
    },
    {
      "inputs": [
        {
          "internalType": "address",
          "name": "operator",
          "type": "address"
        },
        {
          "internalType": "bool",
          "name": "approved",
          "type": "bool"
        }
      ],
      "name": "setApprovalForAll",
      "outputs": [],
      "stateMutability": "nonpayable",
      "type": "function"
    },
    {
      "inputs": [
        {
          "internalType": "bytes4",
          "name": "interfaceId",
          "type": "bytes4"
        }
      ],
      "name": "supportsInterface",
      "outputs": [
        {
          "internalType": "bool",
          "name": "",
          "type": "bool"
        }
      ],
      "stateMutability": "view",
      "type": "function"
    },
    {
      "inputs": [
        {
          "internalType": "uint256",
          "name": "",
          "type": "uint256"
        }
      ],
      "name": "uri",
      "outputs": [
        {
          "internalType": "string",
          "name": "",
          "type": "string"
        }
      ],
      "stateMutability": "view",
      "type": "function"
    }
  ],
  "bytecode": "0x608060405234801561000f575f80fd5b5060408051808201909152601e81527f68747470733a2f2f6c6f6f742e6578616d706c652f7b69647d2e6a736f6e0000602082015261004d81610053565b506101b5565b600261005f82826100fb565b5050565b634e487b7160e01b5f52604160045260245ffd5b600181811c9082168061008b57607f821691505b6020821081036100a957634e487b7160e01b5f52602260045260245ffd5b50919050565b601f8211156100f657805f5260205f20601f840160051c810160208510156100d45750805b601f840160051c820191505b818110156100f3575f81556001016100e0565b50505b505050565b81516001600160401b0381111561011457610114610063565b610128816101228454610077565b846100af565b6020601f82116001811461015a575f83156101435750848201515b5f19600385901b1c1916600184901b1784556100f3565b5f84815260208120601f198516915b828110156101895787850151825560209485019460019092019101610169565b50848210156101a657868401515f19600387901b60f8161c191681555b50505050600190811b01905550565b611108806101c25f395ff3fe608060405234801561000f575f80fd5b506004361061008f575f3560e01c80632eb2c2d6116100635780632eb2c2d6146101115780634e1273f414610124578063a22cb46514610144578063e985e9c514610157578063f242432a1461016a575f80fd5b8062fdd58e1461009357806301ffc9a7146100b95780630e89341c146100dc578063156e29f6146100fc575b5f80fd5b6100a66100a1366004610adb565b61017d565b6040519081526020015b60405180910390f35b6100cc6100c7366004610b1b565b6101a4565b60405190151581526020016100b0565b6100ef6100ea366004610b3d565b6101f3565b6040516100b09190610b82565b61010f61010a366004610b94565b610285565b005b61010f61011f366004610d02565b6102a4565b610137610132366004610db1565b610310565b6040516100b09190610eae565b61010f610152366004610ec0565b6103db565b6100cc610165366004610ef9565b6103ea565b61010f610178366004610f2a565b610417565b5f818152602081815260408083206001600160a01b03861684529091529020545b92915050565b5f6001600160e01b03198216636cdb3d1360e11b14806101d457506001600160e01b031982166303a24d0760e21b145b8061019e57506301ffc9a760e01b6001600160e01b031983161461019e565b60606002805461020290610f7e565b80601f016020809104026020016040519081016040528092919081815260200182805461022e90610f7e565b80156102795780601f1061025057610100808354040283529160200191610279565b820191905f5260205f20905b81548152906001019060200180831161025c57829003601f168201915b50505050509050919050565b61029f83838360405180602001604052805f815250610476565b505050565b336001600160a01b03861681148015906102c557506102c386826103ea565b155b156102fb5760405163711bec9160e11b81526001600160a01b038083166004830152871660248201526044015b60405180910390fd5b61030886868686866104d1565b505050505050565b606081518351146103415781518351604051635b05999160e01b8152600481019290925260248201526044016102f2565b5f835167ffffffffffffffff81111561035c5761035c610bc4565b604051908082528060200260200182016040528015610385578160200160208202803683370190505b5090505f5b84518110156103d3576020808202860101516103ae9060208084028701015161017d565b8282815181106103c0576103c0610fb6565b602090810291909101015260010161038a565b509392505050565b6103e6338383610536565b5050565b6001600160a01b039182165f90815260016020908152604080832093909416825291909152205460ff1690565b336001600160a01b0386168114801590610438575061043686826103ea565b155b156104695760405163711bec9160e11b81526001600160a01b038083166004830152871660248201526044016102f2565b61030886868686866105ca565b6001600160a01b03841661049f57604051632bfa23e760e11b81525f60048201526024016102f2565b604080516001808252602082018690528183019081526060820185905260808201909252906103085f87848487610656565b6001600160a01b0384166104fa57604051632bfa23e760e11b81525f60048201526024016102f2565b6001600160a01b03851661052257604051626a0d4560e21b81525f60048201526024016102f2565b61052f8585858585610656565b5050505050565b6001600160a01b03821661055e5760405162ced3e160e81b81525f60048201526024016102f2565b6001600160a01b038381165f81815260016020908152604080832094871680845294825291829020805460ff191686151590811790915591519182527f17307eab39ab6107e8899845ad3d59bd9653f200f220920489ca2b5937696c31910160405180910390a3505050565b6001600160a01b0384166105f357604051632bfa23e760e11b81525f60048201526024016102f2565b6001600160a01b03851661061b57604051626a0d4560e21b81525f60048201526024016102f2565b6040805160018082526020820186905281830190815260608201859052608082019092529061064d8787848487610656565b50505050505050565b610662858585856106a9565b6001600160a01b0384161561052f578251339060010361069b57602084810151908401516106948389898585896108b8565b5050610308565b6103088187878787876109d9565b80518251146106d85781518151604051635b05999160e01b8152600481019290925260248201526044016102f2565b335f5b83518110156107da576020818102858101820151908501909101516001600160a01b0388161561078c575f828152602081815260408083206001600160a01b038c16845290915290205481811015610766576040516303dee4c560e01b81526001600160a01b038a1660048201526024810182905260448101839052606481018490526084016102f2565b5f838152602081815260408083206001600160a01b038d16845290915290209082900390555b6001600160a01b038716156107d0575f828152602081815260408083206001600160a01b038b168452909152812080548392906107ca908490610fca565b90915550505b50506001016106db565b50825160010361085a5760208301515f906020840151909150856001600160a01b0316876001600160a01b0316846001600160a01b03167fc3d58168c5ae7397731d063d5bbf3d657854427343f4c083240f7aacaa2d0f62858560405161084b929190918252602082015260400190565b60405180910390a4505061052f565b836001600160a01b0316856001600160a01b0316826001600160a01b03167f4a39dc06d4c0dbc64b70af90fd698a233a518aa5d07e595d983b8c0526c8f7fb86866040516108a9929190610fe9565b60405180910390a45050505050565b6001600160a01b0384163b156103085760405163f23a6e6160e01b81526001600160a01b0385169063f23a6e61906108fc9089908990889088908890600401611016565b6020604051808303815f875af1925050508015610936575060408051601f3d908101601f191682019092526109339181019061105a565b60015b61099d573d808015610963576040519150601f19603f3d011682016040523d82523d5f602084013e610968565b606091505b5080515f0361099557604051632bfa23e760e11b81526001600160a01b03861660048201526024016102f2565b805160208201fd5b6001600160e01b0319811663f23a6e6160e01b1461064d57604051632bfa23e760e11b81526001600160a01b03861660048201526024016102f2565b6001600160a01b0384163b156103085760405163bc197c8160e01b81526001600160a01b0385169063bc197c8190610a1d9089908990889088908890600401611075565b6020604051808303815f875af1925050508015610a57575060408051601f3d908101601f19168201909252610a549181019061105a565b60015b610a84573d808015610963576040519150601f19603f3d011682016040523d82523d5f602084013e610968565b6001600160e01b0319811663bc197c8160e01b1461064d57604051632bfa23e760e11b81526001600160a01b03861660048201526024016102f2565b80356001600160a01b0381168114610ad6575f80fd5b919050565b5f8060408385031215610aec575f80fd5b610af583610ac0565b946020939093013593505050565b6001600160e01b031981168114610b18575f80fd5b50565b5f60208284031215610b2b575f80fd5b8135610b3681610b03565b9392505050565b5f60208284031215610b4d575f80fd5b5035919050565b5f81518084528060208401602086015e5f602082860101526020601f19601f83011685010191505092915050565b602081525f610b366020830184610b54565b5f805f60608486031215610ba6575f80fd5b610baf84610ac0565b95602085013595506040909401359392505050565b634e487b7160e01b5f52604160045260245ffd5b604051601f8201601f1916810167ffffffffffffffff81118282101715610c0157610c01610bc4565b604052919050565b5f67ffffffffffffffff821115610c2257610c22610bc4565b5060051b60200190565b5f82601f830112610c3b575f80fd5b8135610c4e610c4982610c09565b610bd8565b8082825260208201915060208360051b860101925085831115610c6f575f80fd5b602085015b83811015610c8c578035835260209283019201610c74565b5095945050505050565b5f82601f830112610ca5575f80fd5b813567ffffffffffffffff811115610cbf57610cbf610bc4565b610cd2601f8201601f1916602001610bd8565b818152846020838601011115610ce6575f80fd5b816020850160208301375f918101602001919091529392505050565b5f805f805f60a08688031215610d16575f80fd5b610d1f86610ac0565b9450610d2d60208701610ac0565b9350604086013567ffffffffffffffff811115610d48575f80fd5b610d5488828901610c2c565b935050606086013567ffffffffffffffff811115610d70575f80fd5b610d7c88828901610c2c565b925050608086013567ffffffffffffffff811115610d98575f80fd5b610da488828901610c96565b9150509295509295909350565b5f8060408385031215610dc2575f80fd5b823567ffffffffffffffff811115610dd8575f80fd5b8301601f81018513610de8575f80fd5b8035610df6610c4982610c09565b8082825260208201915060208360051b850101925087831115610e17575f80fd5b6020840193505b82841015610e4057610e2f84610ac0565b825260209384019390910190610e1e565b9450505050602083013567ffffffffffffffff811115610e5e575f80fd5b610e6a85828601610c2c565b9150509250929050565b5f8151808452602084019350602083015f5b82811015610ea4578151865260209586019590910190600101610e86565b5093949350505050565b602081525f610b366020830184610e74565b5f8060408385031215610ed1575f80fd5b610eda83610ac0565b915060208301358015158114610eee575f80fd5b809150509250929050565b5f8060408385031215610f0a575f80fd5b610f1383610ac0565b9150610f2160208401610ac0565b90509250929050565b5f805f805f60a08688031215610f3e575f80fd5b610f4786610ac0565b9450610f5560208701610ac0565b93506040860135925060608601359150608086013567ffffffffffffffff811115610d98575f80fd5b600181811c90821680610f9257607f821691505b602082108103610fb057634e487b7160e01b5f52602260045260245ffd5b50919050565b634e487b7160e01b5f52603260045260245ffd5b8082018082111561019e57634e487b7160e01b5f52601160045260245ffd5b604081525f610ffb6040830185610e74565b828103602084015261100d8185610e74565b95945050505050565b6001600160a01b03868116825285166020820152604081018490526060810183905260a0608082018190525f9061104f90830184610b54565b979650505050505050565b5f6020828403121561106a575f80fd5b8151610b3681610b03565b6001600160a01b0386811682528516602082015260a0604082018190525f906110a090830186610e74565b82810360608401526110b28186610e74565b905082810360808401526110c68185610b54565b9897505050505050505056fea2646970667358221220fd8137ebebb9b439e40acb53d654da39fe9e175ec6a2f9ac7d20699e1bfdbd4464736f6c634300081a0033",
  "linkReferences": {},
  "deployedLinkReferences": {},
  "immutableReferences": {},
  "inputSourceName": "project/contracts/SmetERC1155.sol",
  "buildInfoId": "solc-0_8_26-3ee33b19694c4231b502b8e3cea0b5b9292aa226"
}