{
  "_format": "hh3-artifact-1",
  "contractName": "SmetReward",
  "sourceName": "contracts/SmetReward.sol",
  "abi": [
    {
      "inputs": [
        {
          "internalType": "address",
          "name": "_coordinator",
          "type": "address"
        },
        {
          "internalType": "uint256",
          "name": "_subId",
          "type": "uint256"
        },
        {
          "internalType": "bytes32",
          "name": "_keyHash",
          "type": "bytes32"
        },
        {
          "internalType": "uint256",
          "name": "_fee",
          "type": "uint256"
        },
        {
          "internalType": "uint32[]",
          "name": "_weights",
          "type": "uint32[]"
        },
        {
          "components": [
            {
              "internalType": "uint8",
              "name": "assetType",
              "type": "uint8"
            },
            {
              "internalType": "address",
              "name": "token",
              "type": "address"
            },
            {
              "internalType": "uint256",
              "name": "idOrAmount",
              "type": "uint256"
            }
          ],
          "internalType": "struct Reward[]",
          "name": "_prizes",
          "type": "tuple[]"
        }
      ],
      "stateMutability": "nonpayable",
      "type": "constructor"
    },
    {
      "inputs": [
        {
          "internalType": "address",
          "name": "have",
          "type": "address"
        },
        {
          "internalType": "address",
          "name": "want",
          "type": "address"
        }
      ],
      "name": "OnlyCoordinatorCanFulfill",
      "type": "error"
    },
    {
      "inputs": [
        {
          "internalType": "address",
          "name": "have",
          "type": "address"
        },
        {
          "internalType": "address",
          "name": "owner",
          "type": "address"
        },
        {
          "internalType": "address",
          "name": "coordinator",
          "type": "address"
        }
      ],
      "name": "OnlyOwnerOrCoordinator",
      "type": "error"
    },
    {
      "inputs": [],
      "name": "ZeroAddress",
      "type": "error"
    },
    {
      "anonymous": false,
      "inputs": [
        {
          "indexed": false,
          "internalType": "address",
          "name": "vrfCoordinator",
          "type": "address"
        }
      ],
      "name": "CoordinatorSet",
      "type": "event"
    },
    {
      "anonymous": false,
      "inputs": [
        {
          "indexed": true,
          "internalType": "address",
          "name": "opener",
          "type": "address"
        },
        {
          "indexed": true,
          "internalType": "uint256",
          "name": "reqId",
          "type": "uint256"
        }
      ],
      "name": "Opened",
      "type": "event"
    },
    {
      "anonymous": false,
      "inputs": [
        {
          "indexed": true,
          "internalType": "address",
          "name": "from",
          "type": "address"
        },
        {
          "indexed": true,
          "internalType": "address",
          "name": "to",
          "type": "address"
        }
      ],
      "name": "OwnershipTransferRequested",
      "type": "event"
    },
    {
      "anonymous": false,
      "inputs": [
        {
          "indexed": true,
          "internalType": "address",
          "name": "from",
          "type": "address"
        },
        {
          "indexed": true,
          "internalType": "address",
          "name": "to",
          "type": "address"
        }
      ],
      "name": "OwnershipTransferred",
      "type": "event"
    },
    {
      "anonymous": false,
      "inputs": [
        {
          "indexed": true,
          "internalType": "address",
          "name": "opener",
          "type": "address"
        },
        {
          "components": [
            {
              "internalType": "uint8",
              "name": "assetType",
              "type": "uint8"
            },
            {
              "internalType": "address",
              "name": "token",
              "type": "address"
            },
            {
              "internalType": "uint256",
              "name": "idOrAmount",
              "type": "uint256"
            }
          ],
          "indexed": false,
          "internalType": "struct Reward",
          "name": "reward",
          "type": "tuple"
        }
      ],
      "name": "RewardOut",
      "type": "event"
    },
    {
      "inputs": [],
      "name": "VRF_COORD",
      "outputs": [
        {
          "internalType": "address",
          "name": "",
          "type": "address"
        }
      ],
      "stateMutability": "view",
      "type": "function"
    },
    {
      "inputs": [],
      "name": "acceptOwnership",
      "outputs": [],
      "stateMutability": "nonpayable",
      "type": "function"
    },
    {
      "inputs": [],
      "name": "callbackGasLimit",
      "outputs": [
        {
          "internalType": "uint32",
          "name": "",
          "type": "uint32"
        }
      ],
      "stateMutability": "view",
      "type": "function"
    },
    {
      "inputs": [
        {
          "internalType": "uint256",
          "name": "",
          "type": "uint256"
        }
      ],
      "name": "cdf",
      "outputs": [
        {
          "internalType": "uint32",
          "name": "",
          "type": "uint32"
        }
      ],
      "stateMutability": "view",
      "type": "function"
    },
    {
      "inputs": [],
      "name": "fee",
      "outputs": [
        {
          "internalType": "uint256",
          "name": "",
          "type": "uint256"
        }
      ],
      "stateMutability": "view",
      "type": "function"
    },
    {
      "inputs": [],
      "name": "keyHash",
      "outputs": [
        {
          "internalType": "bytes32",
          "name": "",
          "type": "bytes32"
        }
      ],
      "stateMutability": "view",
      "type": "function"
    },
    {
      "inputs": [],
      "name": "numWords",
      "outputs": [
        {
          "internalType": "uint32",
          "name": "",
          "type": "uint32"
        }
      ],
      "stateMutability": "view",
      "type": "function"
    },
    {
      "inputs": [
        {
          "internalType": "address",
          "name": "",
          "type": "address"
        },
        {
          "internalType": "address",
          "name": "",
          "type": "address"
        },
        {
          "internalType": "uint256[]",
          "name": "",
          "type": "uint256[]"
        },
        {
          "internalType": "uint256[]",
          "name": "",
          "type": "uint256[]"
        },
        {
          "internalType": "bytes",
          "name": "",
          "type": "bytes"
        }
      ],
      "name": "onERC1155BatchReceived",
      "outputs": [
        {
          "internalType": "bytes4",
          "name": "",
          "type": "bytes4"
        }
      ],
      "stateMutability": "pure",
      "type": "function"
    },
    {
      "inputs": [
        {
          "internalType": "address",
          "name": "",
          "type": "address"
        },
        {
          "internalType": "address",
          "name": "",
          "type": "address"
        },
        {
          "internalType": "uint256",
          "name": "",
          "type": "uint256"
        },
        {
          "internalType": "uint256",
          "name": "",
          "type": "uint256"
        },
        {
          "internalType": "bytes",
          "name": "",
          "type": "bytes"
        }
      ],
      "name": "onERC1155Received",
      "outputs": [
        {
          "internalType": "bytes4",
          "name": "",
          "type": "bytes4"
        }
      ],
      "stateMutability": "pure",
      "type": "function"
    },
    {
      "inputs": [
        {
          "internalType": "address",
          "name": "",
          "type": "address"
        },
        {
          "internalType": "address",
          "name": "",
          "type": "address"
        },
        {
          "internalType": "uint256",
          "name": "",
          "type": "uint256"
        },
        {
          "internalType": "bytes",
          "name": "",
          "type": "bytes"
        }
      ],
      "name": "onERC721Received",
      "outputs": [
        {
          "internalType": "bytes4",
          "name": "",
          "type": "bytes4"
        }
      ],
      "stateMutability": "pure",
      "type": "function"
    },
    {
      "inputs": [
        {
          "internalType": "bool",
          "name": "payInNative",
          "type": "bool"
        }
      ],
      "name": "open",
      "outputs": [
        {
          "internalType": "uint256",
          "name": "reqId",
          "type": "uint256"
        }
      ],
      "stateMutability": "payable",
      "type": "function"
    },
    {
      "inputs": [],
      "name": "owner",
      "outputs": [
        {
          "internalType": "address",
          "name": "",
          "type": "address"
        }
      ],
      "stateMutability": "view",
      "type": "function"
    },
    {
      "inputs": [
        {
          "internalType": "uint256",
          "name": "",
          "type": "uint256"
        }
      ],
      "name": "prizePool",
      "outputs": [
        {
          "internalType": "uint8",
          "name": "assetType",
          "type": "uint8"
        },
        {
          "internalType": "address",
          "name": "token",
          "type": "address"
        },
        {
          "internalType": "uint256",
          "name": "idOrAmount",
          "type": "uint256"
        }
      ],
      "stateMutability": "view",
      "type": "function"
    },
    {
      "inputs": [
        {
          "internalType": "uint256",
          "name": "requestId",
          "type": "uint256"
        },
        {
          "internalType": "uint256[]",
          "name": "randomWords",
          "type": "uint256[]"
        }
      ],
      "name": "rawFulfillRandomWords",
      "outputs": [],
      "stateMutability": "nonpayable",
      "type": "function"
    },
    {
      "inputs": [
        {
          "internalType": "contract IERC20",
          "name": "token",
          "type": "address"
        },
        {
          "internalType": "uint256",
          "name": "amount",
          "type": "uint256"
        }
      ],
      "name": "refill",
      "outputs": [],
      "stateMutability": "nonpayable",
      "type": "function"
    },
    {
      "inputs": [],
      "name": "requestConfirmations",
      "outputs": [
        {
          "internalType": "uint16",
          "name": "",
          "type": "uint16"
        }
      ],
      "stateMutability": "view",
      "type": "function"
    },
    {
      "inputs": [],
      "name": "s_vrfCoordinator",
      "outputs": [
        {
          "internalType": "contract IVRFCoordinatorV2Plus",
          "name": "",
          "type": "address"
        }
      ],
      "stateMutability": "view",
      "type": "function"
    },
    {
      "inputs": [
        {
          "internalType": "address",
          "name": "_vrfCoordinator",
          "type": "address"
        }
      ],
      "name": "setCoordinator",
      "outputs": [],
      "stateMutability": "nonpayable",
      "type": "function"
    },
    {
      "inputs": [],
      "name": "subId",
      "outputs": [
        {
          "internalType": "uint256",
          "name": "",
          "type": "uint256"
        }
      ],
      "stateMutability": "view",
      "type": "function"
    },
    {
      "inputs": [
        {
          "internalType": "bytes4",
          "name": "interfaceId",
          "type": "bytes4"
        }
      ],
      "name": "supportsInterface",
      "outputs": [
        {
          "internalType": "bool",
          "name": "",
          "type": "bool"
        }
      ],
      "stateMutability": "pure",
      "type": "function"
    },
    {
      "inputs": [
        {
          "internalType": "address",
          "name": "to",
          "type": "address"
        }
      ],
      "name": "transferOwnership",
      "outputs": [],
      "stateMutability": "nonpayable",
      "type": "function"
    },
    {
      "stateMutability": "payable",
      "type": "receive"
    }
  ],
  "bytecode": "0x60e060405260028054600160a01b600160f01b03191666030003d090000360a01b17905534801561002e575f80fd5b50604051611a12380380611a1283398101604081905261004d91610519565b8533805f816100a35760405162461bcd60e51b815260206004820152601860248201527f43616e6e6f7420736574206f776e657220746f207a65726f000000000000000060448201526064015b60405180910390fd5b5f80546001600160a01b0319166001600160a01b03848116919091179091558116156100d2576100d281610316565b5050506001600160a01b0381166100fc5760405163d92e233d60e01b815260040160405180910390fd5b600280546001600160a01b0319166001600160a01b03929092169190911790558051825114801561012d57505f8251115b6101685760405162461bcd60e51b815260206004820152600c60248201526b0d8cadc40dad2e6dac2e8c6d60a31b604482015260640161009a565b6001600160a01b03861660805260c085905260a084905260038390555f805b8351811015610218578381815181106101a2576101a2610612565b6020026020010151826101b59190610626565b60048054600180820183555f8390527f8a35acfbc15ff81a39ae7d344fd709f28e8600b4aa8c65c6b64bfe7fe36bd19b6008830401805460079093169093026101000a63ffffffff81810219909316928516029190911790915590925001610187565b505f5b8251811015610309575f83828151811061023757610237610612565b60209081029190910181015160408051606081018252825160ff9081168252838501516001600160a01b039081169583019586529383015192820192835260058054600181810183555f92909252925160029093027f036b6384b5eca791c62761152d0c79bb0604c104a5fb6f4eb0703f3154bb3db0810180549751909616610100026001600160a81b0319909716939092169290921794909417909255517f036b6384b5eca791c62761152d0c79bb0604c104a5fb6f4eb0703f3154bb3db19092019190915591909101905061021b565b5050505050505050610654565b336001600160a01b0382160361036e5760405162461bcd60e51b815260206004820152601760248201527f43616e6e6f74207472616e7366657220746f2073656c66000000000000000000604482015260640161009a565b600180546001600160a01b0319166001600160a01b038381169182179092555f8054604051929316917fed8889f560326eb138920d842192f0eb3dd22b4f139c87a2c57538e05bae12789190a350565b80516001600160a01b03811681146103d4575f80fd5b919050565b634e487b7160e01b5f52604160045260245ffd5b604051606081016001600160401b038111828210171561040f5761040f6103d9565b60405290565b604051601f8201601f191681016001600160401b038111828210171561043d5761043d6103d9565b604052919050565b5f6001600160401b0382111561045d5761045d6103d9565b5060051b60200190565b5f82601f830112610476575f80fd5b815161048961048482610445565b610415565b808282526020820191506020606084028601019250858311156104aa575f80fd5b602085015b8381101561050f57606081880312156104c6575f80fd5b6104ce6103ed565b815160ff811681146104de575f80fd5b81526104ec602083016103be565b6020828101919091526040838101519083015290845292909201916060016104af565b5095945050505050565b5f805f805f8060c0878903121561052e575f80fd5b610537876103be565b6020880151604089015160608a015160808b0151939950919750955093506001600160401b03811115610568575f80fd5b8701601f81018913610578575f80fd5b805161058661048482610445565b8082825260208201915060208360051b85010192508b8311156105a7575f80fd5b6020840193505b828410156105da57835163ffffffff811681146105c9575f80fd5b8252602093840193909101906105ae565b60a08b0151909550925050506001600160401b038111156105f9575f80fd5b61060589828a01610467565b9150509295509295509295565b634e487b7160e01b5f52603260045260245ffd5b63ffffffff818116838216019081111561064e57634e487b7160e01b5f52601160045260245ffd5b92915050565b60805160a05160c05161138661068c5f395f8181610441015261082001525f818161029f01526107fd01525f61014501526113865ff3fe608060405260043610610129575f3560e01c80638da5cb5b116100a8578063bc197c811161006d578063bc197c81146103a7578063d636e6fa146103d5578063ddca3f431461041b578063eb1d28bb14610430578063f23a6e6114610463578063f2fde38b1461048f575f80fd5b80638da5cb5b146103065780638ea98117146103225780639eccacf614610341578063a85717d314610360578063b0fb162f14610373575f80fd5b806324f74697116100ee57806324f746971461023757806360042c7e1461026f57806361728f391461028e57806379ba5097146102cf5780637ccfd7fc146102e3575f80fd5b8063012caef41461013457806301ffc9a7146101845780630aa3ae7e146101b3578063150b7a02146101d45780631fe543e314610218575f80fd5b3661013057005b5f80fd5b34801561013f575f80fd5b506101677f000000000000000000000000000000000000000000000000000000000000000081565b6040516001600160a01b0390911681526020015b60405180910390f35b34801561018f575f80fd5b506101a361019e366004610f0d565b6104ae565b604051901515815260200161017b565b3480156101be575f80fd5b506101d26101cd366004610f4f565b6104e4565b005b3480156101df575f80fd5b506101ff6101ee366004610fbe565b630a85bd0160e11b95945050505050565b6040516001600160e01b0319909116815260200161017b565b348015610223575f80fd5b506101d261023236600461106d565b61059b565b348015610242575f80fd5b5060025461025a90600160b01b900463ffffffff1681565b60405163ffffffff909116815260200161017b565b34801561027a575f80fd5b5061025a6102893660046110b5565b6105e6565b348015610299575f80fd5b506102c17f000000000000000000000000000000000000000000000000000000000000000081565b60405190815260200161017b565b3480156102da575f80fd5b506101d261061d565b3480156102ee575f80fd5b5060025461025a90600160d01b900463ffffffff1681565b348015610311575f80fd5b505f546001600160a01b0316610167565b34801561032d575f80fd5b506101d261033c3660046110cc565b6106c6565b34801561034c575f80fd5b50600254610167906001600160a01b031681565b6102c161036e3660046110f4565b6107b6565b34801561037e575f80fd5b5060025461039490600160a01b900461ffff1681565b60405161ffff909116815260200161017b565b3480156103b2575f80fd5b506101ff6103c136600461110f565b63bc197c8160e01b98975050505050505050565b3480156103e0575f80fd5b506103f46103ef3660046110b5565b61095e565b6040805160ff90941684526001600160a01b0390921660208401529082015260600161017b565b348015610426575f80fd5b506102c160035481565b34801561043b575f80fd5b506102c17f000000000000000000000000000000000000000000000000000000000000000081565b34801561046e575f80fd5b506101ff61047d3660046111d2565b63f23a6e6160e01b9695505050505050565b34801561049a575f80fd5b506101d26104a93660046110cc565b61099d565b5f6001600160e01b03198216630271189760e51b14806104de57506001600160e01b03198216630a85bd0160e11b145b92915050565b5f81116105225760405162461bcd60e51b815260206004820152600760248201526608585b5bdd5b9d60ca1b60448201526064015b60405180910390fd5b6040516323b872dd60e01b8152336004820152306024820152604481018290526001600160a01b038316906323b872dd906064016020604051808303815f875af1158015610572573d5f803e3d5ffd5b505050506040513d601f19601f820116820180604052508101906105969190611249565b505050565b6002546001600160a01b031633146105db5760025460405163073e64fd60e21b81523360048201526001600160a01b039091166024820152604401610519565b6105968383836109b1565b600481815481106105f5575f80fd5b905f5260205f209060089182820401919006600402915054906101000a900463ffffffff1681565b6001546001600160a01b031633146106705760405162461bcd60e51b815260206004820152601660248201527526bab9ba10313290383937b837b9b2b21037bbb732b960511b6044820152606401610519565b5f8054336001600160a01b0319808316821784556001805490911690556040516001600160a01b0390921692909183917f8be0079c531659141344cd1fd0a4f28419497f9722a3daafe3b4186f6b6457e091a350565b5f546001600160a01b031633148015906106eb57506002546001600160a01b03163314155b1561073b57336107025f546001600160a01b031690565b60025460405163061db9c160e01b81526001600160a01b0393841660048201529183166024830152919091166044820152606401610519565b6001600160a01b0381166107625760405163d92e233d60e01b815260040160405180910390fd5b600280546001600160a01b0319166001600160a01b0383169081179091556040519081527fd1a6a14209a385a964d036e404cb5cfb71f4000cdb03c9366292430787261be69060200160405180910390a150565b5f60035434146107f15760405162461bcd60e51b8152600401610519906020808252600490820152632166656560e01b604082015260600190565b6040805160c0810182527f000000000000000000000000000000000000000000000000000000000000000081527f000000000000000000000000000000000000000000000000000000000000000060208083019190915260025461ffff600160a01b8204168385015263ffffffff600160b01b820481166060850152600160d01b909104166080830152825190810190925283151582525f9160a082019061089890610bb0565b9052600254604051634d8e1c2f60e11b81529192506001600160a01b031690639b1c385e906108cb908490600401611264565b6020604051808303815f875af11580156108e7573d5f803e3d5ffd5b505050506040513d601f19601f8201168201806040525081019061090b91906112e7565b5f8181526006602052604080822080546001600160a01b031916339081179091559051929450849290917fc4b27f09c64550fd678a5b3c3a00f454814732e346e0f1c79d0add8f980346de91a350919050565b6005818154811061096d575f80fd5b5f9182526020909120600290910201805460019091015460ff821692506101009091046001600160a01b03169083565b6109a5610c21565b6109ae81610c75565b50565b5f838152600660205260409020546001600160a01b031680610a015760405162461bcd60e51b815260206004820152600960248201526837379037b832b732b960b91b6044820152606401610519565b600480545f9190610a14906001906112fe565b81548110610a2457610a2461131d565b5f9182526020822060088204015460079091166004026101000a900463ffffffff1691508185858381610a5957610a5961131d565b90506020020135610a6a9190611331565b90505f5b600454811015610abc5760048181548110610a8b57610a8b61131d565b5f918252602090912060088204015460079091166004026101000a900463ffffffff168210610abc57600101610a6e565b5f60058281548110610ad057610ad061131d565b5f918252602091829020604080516060810182526002909302909101805460ff811684526001600160a01b036101009091041693830193909352600190920154918101919091529050610b238582610d1d565b846001600160a01b03167ffcdd1130651a2fc8c6509501734e4dc73c280c1062a629d604d970652b9b67bd82604051610b849190815160ff1681526020808301516001600160a01b0316908201526040918201519181019190915260600190565b60405180910390a25050505f9485525050600660205250506040902080546001600160a01b0319169055565b60607f92fd13387c7fe7befbc38d303d6468778fb9731bc4583f17d92989c6fcfdeaaa82604051602401610be991511515815260200190565b60408051601f198184030181529190526020810180516001600160e01b03166001600160e01b03199093169290921790915292915050565b5f546001600160a01b03163314610c735760405162461bcd60e51b815260206004820152601660248201527527b7363c9031b0b63630b1363290313c9037bbb732b960511b6044820152606401610519565b565b336001600160a01b03821603610ccd5760405162461bcd60e51b815260206004820152601760248201527f43616e6e6f74207472616e7366657220746f2073656c660000000000000000006044820152606401610519565b600180546001600160a01b0319166001600160a01b038381169182179092555f8054604051929316917fed8889f560326eb138920d842192f0eb3dd22b4f139c87a2c57538e05bae12789190a350565b805160ff16600103610dec576020810151604080830151905163a9059cbb60e01b81526001600160a01b038581166004830152602482019290925291169063a9059cbb906044016020604051808303815f875af1158015610d80573d5f803e3d5ffd5b505050506040513d601f19601f82011682018060405250810190610da49190611249565b610de85760405162461bcd60e51b8152602060048201526015602482015274195c98cc8c081d1c985b9cd9995c8819985a5b1959605a1b6044820152606401610519565b5050565b805160ff16600203610e6b5760208101516040808301519051632142170760e11b81523060048201526001600160a01b03858116602483015260448201929092529116906342842e0e906064015b5f604051808303815f87803b158015610e51575f80fd5b505af1158015610e63573d5f803e3d5ffd5b505050505050565b805160ff16600303610ed15760208101516040808301519051637921219560e11b81523060048201526001600160a01b03858116602483015260448201929092526001606482015260a060848201525f60a482015291169063f242432a9060c401610e3a565b60405162461bcd60e51b8152602060048201526011602482015270696e76616c69642061737365745479706560781b6044820152606401610519565b5f60208284031215610f1d575f80fd5b81356001600160e01b031981168114610f34575f80fd5b9392505050565b6001600160a01b03811681146109ae575f80fd5b5f8060408385031215610f60575f80fd5b8235610f6b81610f3b565b946020939093013593505050565b5f8083601f840112610f89575f80fd5b50813567ffffffffffffffff811115610fa0575f80fd5b602083019150836020828501011115610fb7575f80fd5b9250929050565b5f805f805f60808688031215610fd2575f80fd5b8535610fdd81610f3b565b94506020860135610fed81610f3b565b935060408601359250606086013567ffffffffffffffff81111561100f575f80fd5b61101b88828901610f79565b969995985093965092949392505050565b5f8083601f84011261103c575f80fd5b50813567ffffffffffffffff811115611053575f80fd5b6020830191508360208260051b8501011115610fb7575f80fd5b5f805f6040848603121561107f575f80fd5b83359250602084013567ffffffffffffffff81111561109c575f80fd5b6110a88682870161102c565b9497909650939450505050565b5f602082840312156110c5575f80fd5b5035919050565b5f602082840312156110dc575f80fd5b8135610f3481610f3b565b80151581146109ae575f80fd5b5f60208284031215611104575f80fd5b8135610f34816110e7565b5f805f805f805f8060a0898b031215611126575f80fd5b883561113181610f3b565b9750602089013561114181610f3b565b9650604089013567ffffffffffffffff81111561115c575f80fd5b6111688b828c0161102c565b909750955050606089013567ffffffffffffffff811115611187575f80fd5b6111938b828c0161102c565b909550935050608089013567ffffffffffffffff8111156111b2575f80fd5b6111be8b828c01610f79565b999c989b5096995094979396929594505050565b5f805f805f8060a087890312156111e7575f80fd5b86356111f281610f3b565b9550602087013561120281610f3b565b94506040870135935060608701359250608087013567ffffffffffffffff81111561122b575f80fd5b61123789828a01610f79565b979a9699509497509295939492505050565b5f60208284031215611259575f80fd5b8151610f34816110e7565b60208152815160208201526020820151604082015261ffff604083015116606082015263ffffffff606083015116608082015263ffffffff60808301511660a08201525f60a083015160c08084015280518060e0850152806020830161010086015e5f6101008286010152610100601f19601f8301168501019250505092915050565b5f602082840312156112f7575f80fd5b5051919050565b818103818111156104de57634e487b7160e01b5f52601160045260245ffd5b634e487b7160e01b5f52603260045260245ffd5b5f8261134b57634e487b7160e01b5f52601260045260245ffd5b50069056fea26469706673582212205c665d0c5b7eadf727b98e171952be1c77a601e62300d854f2ea63b2ff9aa70d64736f6c634300081a0033",
  "linkReferences": {},
  "deployedLinkReferences": {},
  "immutableReferences": {
    "941": [
      {
        "length": 32,
        "start": 325
      }
    ],
    "943": [
      {
        "length": 32,
        "start": 671
      },
      {
        "length": 32,
        "start": 2045
      }
    ],
    "945": [
      {
        "length": 32,
        "start": 1089
      },
      {
        "length": 32,
        "start": 2080
      }
    ]
  },
  "inputSourceName": "project/contracts/SmetReward.sol",
  "buildInfoId": "solc-0_8_26-d4c94893312ead9fa08dd3783e103d032337e3b9"
}